{
  "_format": "hh-sol-artifact-1",
  "contractName": "Farmer",
  "sourceName": "contracts/Farmer.sol",
  "abi": [
    {
      "inputs": [],
      "stateMutability": "nonpayable",
      "type": "constructor"
    },
    {
      "anonymous": false,
      "inputs": [
        {
          "indexed": false,
          "internalType": "address",
          "name": "buyer",
          "type": "address"
        },
        {
          "indexed": false,
          "internalType": "uint256",
          "name": "orderId",
          "type": "uint256"
        },
        {
          "indexed": false,
          "internalType": "uint256",
          "name": "itemId",
          "type": "uint256"
        }
      ],
      "name": "Buy",
      "type": "event"
    },
    {
      "anonymous": false,
      "inputs": [
        {
          "indexed": false,
          "internalType": "string",
          "name": "name",
          "type": "string"
        },
        {
          "indexed": false,
          "internalType": "uint256",
          "name": "cost",
          "type": "uint256"
        },
        {
          "indexed": false,
          "internalType": "uint256",
          "name": "quantity",
          "type": "uint256"
        }
      ],
      "name": "List",
      "type": "event"
    },
    {
      "inputs": [
        {
          "internalType": "uint256",
          "name": "_id",
          "type": "uint256"
        }
      ],
      "name": "buy",
      "outputs": [],
      "stateMutability": "payable",
      "type": "function"
    },
    {
      "inputs": [
        {
          "internalType": "uint256",
          "name": "",
          "type": "uint256"
        }
      ],
      "name": "items",
      "outputs": [
        {
          "internalType": "uint256",
          "name": "id",
          "type": "uint256"
        },
        {
          "internalType": "string",
          "name": "name",
          "type": "string"
        },
        {
          "internalType": "string",
          "name": "description",
          "type": "string"
        },
        {
          "internalType": "string",
          "name": "category",
          "type": "string"
        },
        {
          "internalType": "string",
          "name": "image",
          "type": "string"
        },
        {
          "internalType": "uint256",
          "name": "cost",
          "type": "uint256"
        },
        {
          "internalType": "uint256",
          "name": "rating",
          "type": "uint256"
        },
        {
          "internalType": "uint256",
          "name": "stock",
          "type": "uint256"
        }
      ],
      "stateMutability": "view",
      "type": "function"
    },
    {
      "inputs": [
        {
          "internalType": "uint256",
          "name": "_id",
          "type": "uint256"
        },
        {
          "internalType": "string",
          "name": "_name",
          "type": "string"
        },
        {
          "internalType": "string",
          "name": "_description",
          "type": "string"
        },
        {
          "internalType": "string",
          "name": "_category",
          "type": "string"
        },
        {
          "internalType": "string",
          "name": "_image",
          "type": "string"
        },
        {
          "internalType": "uint256",
          "name": "_cost",
          "type": "uint256"
        },
        {
          "internalType": "uint256",
          "name": "_rating",
          "type": "uint256"
        },
        {
          "internalType": "uint256",
          "name": "_stock",
          "type": "uint256"
        }
      ],
      "name": "list",
      "outputs": [],
      "stateMutability": "nonpayable",
      "type": "function"
    },
    {
      "inputs": [
        {
          "internalType": "address",
          "name": "",
          "type": "address"
        }
      ],
      "name": "orderCount",
      "outputs": [
        {
          "internalType": "uint256",
          "name": "",
          "type": "uint256"
        }
      ],
      "stateMutability": "view",
      "type": "function"
    },
    {
      "inputs": [
        {
          "internalType": "address",
          "name": "",
          "type": "address"
        },
        {
          "internalType": "uint256",
          "name": "",
          "type": "uint256"
        }
      ],
      "name": "orders",
      "outputs": [
        {
          "internalType": "uint256",
          "name": "time",
          "type": "uint256"
        },
        {
          "components": [
            {
              "internalType": "uint256",
              "name": "id",
              "type": "uint256"
            },
            {
              "internalType": "string",
              "name": "name",
              "type": "string"
            },
            {
              "internalType": "string",
              "name": "description",
              "type": "string"
            },
            {
              "internalType": "string",
              "name": "category",
              "type": "string"
            },
            {
              "internalType": "string",
              "name": "image",
              "type": "string"
            },
            {
              "internalType": "uint256",
              "name": "cost",
              "type": "uint256"
            },
            {
              "internalType": "uint256",
              "name": "rating",
              "type": "uint256"
            },
            {
              "internalType": "uint256",
              "name": "stock",
              "type": "uint256"
            }
          ],
          "internalType": "struct Farmer.Item",
          "name": "item",
          "type": "tuple"
        }
      ],
      "stateMutability": "view",
      "type": "function"
    },
    {
      "inputs": [],
      "name": "owner",
      "outputs": [
        {
          "internalType": "address",
          "name": "",
          "type": "address"
        }
      ],
      "stateMutability": "view",
      "type": "function"
    },
    {
      "inputs": [],
      "name": "withdraw",
      "outputs": [],
      "stateMutability": "nonpayable",
      "type": "function"
    }
  ],
  "bytecode": "0x608060405234801561001057600080fd5b50336000806101000a81548173ffffffffffffffffffffffffffffffffffffffff021916908373ffffffffffffffffffffffffffffffffffffffff16021790555061194c806100606000396000f3fe6080604052600436106100705760003560e01c8063793b8c6d1161004e578063793b8c6d146100f25780638da5cb5b14610130578063bfb231d21461015b578063d96a094a1461019f57610070565b80633ccfd60b146100755780635143366f1461008c578063713d856b146100b5575b600080fd5b34801561008157600080fd5b5061008a6101bb565b005b34801561009857600080fd5b506100b360048036038101906100ae9190610ff9565b6102ad565b005b3480156100c157600080fd5b506100dc60048036038101906100d7919061117d565b610420565b6040516100e991906111b9565b60405180910390f35b3480156100fe57600080fd5b50610119600480360381019061011491906111d4565b610438565b604051610127929190611367565b60405180910390f35b34801561013c57600080fd5b506101456106e4565b60405161015291906113a6565b60405180910390f35b34801561016757600080fd5b50610182600480360381019061017d91906113c1565b610708565b604051610196989796959493929190611438565b60405180910390f35b6101b960048036038101906101b491906113c1565b610970565b005b60008054906101000a900473ffffffffffffffffffffffffffffffffffffffff1673ffffffffffffffffffffffffffffffffffffffff163373ffffffffffffffffffffffffffffffffffffffff161461021357600080fd5b60008060009054906101000a900473ffffffffffffffffffffffffffffffffffffffff1673ffffffffffffffffffffffffffffffffffffffff164760405161025a90611503565b60006040518083038185875af1925050503d8060008114610297576040519150601f19603f3d011682016040523d82523d6000602084013e61029c565b606091505b50509050806102aa57600080fd5b50565b60008054906101000a900473ffffffffffffffffffffffffffffffffffffffff1673ffffffffffffffffffffffffffffffffffffffff163373ffffffffffffffffffffffffffffffffffffffff161461030557600080fd5b60006040518061010001604052808a815260200189815260200188815260200187815260200186815260200185815260200184815260200183815250905080600160008b81526020019081526020016000206000820151816000015560208201518160010190816103769190611724565b50604082015181600201908161038c9190611724565b5060608201518160030190816103a29190611724565b5060808201518160040190816103b89190611724565b5060a0820151816005015560c0820151816006015560e082015181600701559050507ffdbe2a012c10ec01592653978eaa09b5ca60b143a0e617505b2ebcbd911ec5b888858460405161040d939291906117f6565b60405180910390a1505050505050505050565b60036020528060005260406000206000915090505481565b60026020528160005260406000206020528060005260406000206000915091505080600001549080600101604051806101000160405290816000820154815260200160018201805461048990611547565b80601f01602080910402602001604051908101604052809291908181526020018280546104b590611547565b80156105025780601f106104d757610100808354040283529160200191610502565b820191906000526020600020905b8154815290600101906020018083116104e557829003601f168201915b5050505050815260200160028201805461051b90611547565b80601f016020809104026020016040519081016040528092919081815260200182805461054790611547565b80156105945780601f1061056957610100808354040283529160200191610594565b820191906000526020600020905b81548152906001019060200180831161057757829003601f168201915b505050505081526020016003820180546105ad90611547565b80601f01602080910402602001604051908101604052809291908181526020018280546105d990611547565b80156106265780601f106105fb57610100808354040283529160200191610626565b820191906000526020600020905b81548152906001019060200180831161060957829003601f168201915b5050505050815260200160048201805461063f90611547565b80601f016020809104026020016040519081016040528092919081815260200182805461066b90611547565b80156106b85780601f1061068d576101008083540402835291602001916106b8565b820191906000526020600020905b81548152906001019060200180831161069b57829003601f168201915b505050505081526020016005820154815260200160068201548152602001600782015481525050905082565b60008054906101000a900473ffffffffffffffffffffffffffffffffffffffff1681565b600160205280600052604060002060009150905080600001549080600101805461073190611547565b80601f016020809104026020016040519081016040528092919081815260200182805461075d90611547565b80156107aa5780601f1061077f576101008083540402835291602001916107aa565b820191906000526020600020905b81548152906001019060200180831161078d57829003601f168201915b5050505050908060020180546107bf90611547565b80601f01602080910402602001604051908101604052809291908181526020018280546107eb90611547565b80156108385780601f1061080d57610100808354040283529160200191610838565b820191906000526020600020905b81548152906001019060200180831161081b57829003601f168201915b50505050509080600301805461084d90611547565b80601f016020809104026020016040519081016040528092919081815260200182805461087990611547565b80156108c65780601f1061089b576101008083540402835291602001916108c6565b820191906000526020600020905b8154815290600101906020018083116108a957829003601f168201915b5050505050908060040180546108db90611547565b80601f016020809104026020016040519081016040528092919081815260200182805461090790611547565b80156109545780601f1061092957610100808354040283529160200191610954565b820191906000526020600020905b81548152906001019060200180831161093757829003601f168201915b5050505050908060050154908060060154908060070154905088565b60006001600083815260200190815260200160002060405180610100016040529081600082015481526020016001820180546109ab90611547565b80601f01602080910402602001604051908101604052809291908181526020018280546109d790611547565b8015610a245780601f106109f957610100808354040283529160200191610a24565b820191906000526020600020905b815481529060010190602001808311610a0757829003601f168201915b50505050508152602001600282018054610a3d90611547565b80601f0160208091040260200160405190810160405280929190818152602001828054610a6990611547565b8015610ab65780601f10610a8b57610100808354040283529160200191610ab6565b820191906000526020600020905b815481529060010190602001808311610a9957829003601f168201915b50505050508152602001600382018054610acf90611547565b80601f0160208091040260200160405190810160405280929190818152602001828054610afb90611547565b8015610b485780601f10610b1d57610100808354040283529160200191610b48565b820191906000526020600020905b815481529060010190602001808311610b2b57829003601f168201915b50505050508152602001600482018054610b6190611547565b80601f0160208091040260200160405190810160405280929190818152602001828054610b8d90611547565b8015610bda5780601f10610baf57610100808354040283529160200191610bda565b820191906000526020600020905b815481529060010190602001808311610bbd57829003601f168201915b50505050508152602001600582015481526020016006820154815260200160078201548152505090508060a00151341015610c1457600080fd5b60008160e0015111610c2557600080fd5b60006040518060400160405280428152602001838152509050600360003373ffffffffffffffffffffffffffffffffffffffff1673ffffffffffffffffffffffffffffffffffffffff1681526020019081526020016000206000815480929190610c8e90611863565b919050555080600260003373ffffffffffffffffffffffffffffffffffffffff1673ffffffffffffffffffffffffffffffffffffffff1681526020019081526020016000206000600360003373ffffffffffffffffffffffffffffffffffffffff1673ffffffffffffffffffffffffffffffffffffffff16815260200190815260200160002054815260200190815260200160002060008201518160000155602082015181600101600082015181600001556020820151816001019081610d559190611724565b506040820151816002019081610d6b9190611724565b506060820151816003019081610d819190611724565b506080820151816004019081610d979190611724565b5060a0820151816005015560c0820151816006015560e08201518160070155505090505060018260e00151610dcc91906118ab565b60016000858152602001908152602001600020600701819055507f1cbc5ab135991bd2b6a4b034a04aa2aa086dac1371cb9b16b8b5e2ed6b036bed33600360003373ffffffffffffffffffffffffffffffffffffffff1673ffffffffffffffffffffffffffffffffffffffff168152602001908152602001600020548460000151604051610e5c939291906118df565b60405180910390a1505050565b6000604051905090565b600080fd5b600080fd5b6000819050919050565b610e9081610e7d565b8114610e9b57600080fd5b50565b600081359050610ead81610e87565b92915050565b600080fd5b600080fd5b6000601f19601f8301169050919050565b7f4e487b7100000000000000000000000000000000000000000000000000000000600052604160045260246000fd5b610f0682610ebd565b810181811067ffffffffffffffff82111715610f2557610f24610ece565b5b80604052505050565b6000610f38610e69565b9050610f448282610efd565b919050565b600067ffffffffffffffff821115610f6457610f63610ece565b5b610f6d82610ebd565b9050602081019050919050565b82818337600083830152505050565b6000610f9c610f9784610f49565b610f2e565b905082815260208101848484011115610fb857610fb7610eb8565b5b610fc3848285610f7a565b509392505050565b600082601f830112610fe057610fdf610eb3565b5b8135610ff0848260208601610f89565b91505092915050565b600080600080600080600080610100898b03121561101a57611019610e73565b5b60006110288b828c01610e9e565b985050602089013567ffffffffffffffff81111561104957611048610e78565b5b6110558b828c01610fcb565b975050604089013567ffffffffffffffff81111561107657611075610e78565b5b6110828b828c01610fcb565b965050606089013567ffffffffffffffff8111156110a3576110a2610e78565b5b6110af8b828c01610fcb565b955050608089013567ffffffffffffffff8111156110d0576110cf610e78565b5b6110dc8b828c01610fcb565b94505060a06110ed8b828c01610e9e565b93505060c06110fe8b828c01610e9e565b92505060e061110f8b828c01610e9e565b9150509295985092959890939650565b600073ffffffffffffffffffffffffffffffffffffffff82169050919050565b600061114a8261111f565b9050919050565b61115a8161113f565b811461116557600080fd5b50565b60008135905061117781611151565b92915050565b60006020828403121561119357611192610e73565b5b60006111a184828501611168565b91505092915050565b6111b381610e7d565b82525050565b60006020820190506111ce60008301846111aa565b92915050565b600080604083850312156111eb576111ea610e73565b5b60006111f985828601611168565b925050602061120a85828601610e9e565b9150509250929050565b61121d81610e7d565b82525050565b600081519050919050565b600082825260208201905092915050565b60005b8381101561125d578082015181840152602081019050611242565b60008484015250505050565b600061127482611223565b61127e818561122e565b935061128e81856020860161123f565b61129781610ebd565b840191505092915050565b6000610100830160008301516112bb6000860182611214565b50602083015184820360208601526112d38282611269565b915050604083015184820360408601526112ed8282611269565b915050606083015184820360608601526113078282611269565b915050608083015184820360808601526113218282611269565b91505060a083015161133660a0860182611214565b5060c083015161134960c0860182611214565b5060e083015161135c60e0860182611214565b508091505092915050565b600060408201905061137c60008301856111aa565b818103602083015261138e81846112a2565b90509392505050565b6113a08161113f565b82525050565b60006020820190506113bb6000830184611397565b92915050565b6000602082840312156113d7576113d6610e73565b5b60006113e584828501610e9e565b91505092915050565b600082825260208201905092915050565b600061140a82611223565b61141481856113ee565b935061142481856020860161123f565b61142d81610ebd565b840191505092915050565b60006101008201905061144e600083018b6111aa565b8181036020830152611460818a6113ff565b9050818103604083015261147481896113ff565b9050818103606083015261148881886113ff565b9050818103608083015261149c81876113ff565b90506114ab60a08301866111aa565b6114b860c08301856111aa565b6114c560e08301846111aa565b9998505050505050505050565b600081905092915050565b50565b60006114ed6000836114d2565b91506114f8826114dd565b600082019050919050565b600061150e826114e0565b9150819050919050565b7f4e487b7100000000000000000000000000000000000000000000000000000000600052602260045260246000fd5b6000600282049050600182168061155f57607f821691505b60208210810361157257611571611518565b5b50919050565b60008190508160005260206000209050919050565b60006020601f8301049050919050565b600082821b905092915050565b6000600883026115da7fffffffffffffffffffffffffffffffffffffffffffffffffffffffffffffffff8261159d565b6115e4868361159d565b95508019841693508086168417925050509392505050565b6000819050919050565b600061162161161c61161784610e7d565b6115fc565b610e7d565b9050919050565b6000819050919050565b61163b83611606565b61164f61164782611628565b8484546115aa565b825550505050565b600090565b611664611657565b61166f818484611632565b505050565b5b818110156116935761168860008261165c565b600181019050611675565b5050565b601f8211156116d8576116a981611578565b6116b28461158d565b810160208510156116c1578190505b6116d56116cd8561158d565b830182611674565b50505b505050565b600082821c905092915050565b60006116fb600019846008026116dd565b1980831691505092915050565b600061171483836116ea565b9150826002028217905092915050565b61172d82611223565b67ffffffffffffffff81111561174657611745610ece565b5b6117508254611547565b61175b828285611697565b600060209050601f83116001811461178e576000841561177c578287015190505b6117868582611708565b8655506117ee565b601f19841661179c86611578565b60005b828110156117c45784890151825560018201915060208501945060208101905061179f565b868310156117e157848901516117dd601f8916826116ea565b8355505b6001600288020188555050505b505050505050565b6000606082019050818103600083015261181081866113ff565b905061181f60208301856111aa565b61182c60408301846111aa565b949350505050565b7f4e487b7100000000000000000000000000000000000000000000000000000000600052601160045260246000fd5b600061186e82610e7d565b91507fffffffffffffffffffffffffffffffffffffffffffffffffffffffffffffffff82036118a05761189f611834565b5b600182019050919050565b60006118b682610e7d565b91506118c183610e7d565b92508282039050818111156118d9576118d8611834565b5b92915050565b60006060820190506118f46000830186611397565b61190160208301856111aa565b61190e60408301846111aa565b94935050505056fea2646970667358221220d429b100fcfc37d4383c70b76d44950a7aba794f454a5a9b9eaf9d187ac1da9a64736f6c63430008110033",
  "linkReferences": {},
  "deployedLinkReferences": {}
}